S01200004F7064726163687432422E7372656369
S113000045C0000063C000009FC000004FC0000056
S11300104DC000004BC0000049C0000047C00000B4
S113002045C0000043C0000041C000003FC00000C4
S11300303DC000003BC0000039C0000037C00000D4
S113004035C0000033C0000031C000002FC00000E4
S11300502DC000002BC0000029C0000027C00000F4
S113006025C0000023C0000021C000001FC0000004
S11300701DC000001BC0000019C0000017C0000014
S113008015C0000013C0000011C0000011241FBEE1
S1130090CFEFD0E1DEBFCDBF21E0A0E0B1E001C0F1
S11300A01D92A130B207E1F7A3D0AEC0A9CF20E0E2
S11300B030E008C0EFE1FEE43197F1F700C0000042
S11300C02F5F3F4F28173907ACF308951F920F9203
S11300D00FB60F9211240BB60F922F933F934F93A9
S11300E05F936F937F938F939F93AF93BF93EF939C
S11300F0FF93809100018830A0F42091000181E0F9
S113010090E002C0880F991F2A95E2F792B3892BD9
S113011082BB82E390E0CBDF809100018F5F80930C
S11301200001FF91EF91BF91AF919F918F917F91CA
S11301306F915F914F913F912F910F900BBE0F9054
S11301400FBE0F901F9018951F920F920FB60F922B
S113015011240BB60F922F933F934F935F936F939A
S11301607F938F939F93AF93BF93EF93FF9380916C
S1130170000180910001811112C02091000181E0F1
S113018090E002C0880F991F2A95E2F78095909518
S113019092B3892382BB82E390E089DF16C0209169
S11301A0000181E090E002C0880F991F2A95E2F7D0
S11301B08095909592B3892382BB82E390E077DFA8
S11301C080910001815080930001FF91EF91BF91D4
S11301D0AF919F918F917F916F915F914F913F91DB
S11301E02F910F900BBE0F900FBE0F901F9018957C
S11301F080EF81BBEAE6F0E080818B60808389B781
S10F0200836089BF7894FFCFF894FFCF8F
S9030000FC
