:1000000045C0000058C0000056C0000054C00000A9
:1000100052C0000050C000004EC000004CC00000A4
:100020004AC0000048C0000046C0000044C00000B4
:1000300042C0000040C000003EC000003CC00000C4
:100040003AC0000038C0000036C0000034C00000D4
:1000500032C0000030C000002EC000002CC00000E4
:100060002AC0000028C0000026C0000024C00000F4
:1000700022C0000020C000001EC000001CC0000004
:100080001AC0000018C0000016C0000011241FBED6
:10009000CFEFD0E1DEBFCDBF11E0A0E0B1E0E0E105
:1000A000F8E000E00BBF02C007900D92A431B10749
:1000B000D9F7C5D0ABC3A4CF8BB380648BBB83EC23
:1000C00099E00197F1F700C000008BB38F7B8BBBE9
:1000D00083EC99E00197F1F700C000000895CF93F9
:1000E000C82F85BB8BB380618BBBE6DFC295C07F19
:1000F000C5BB8BB380618BBBDFDFCF910895CF93FE
:10010000DF93EC0102C0EBDF219688818111FBCFE8
:10011000DF91CF910895CF93C82F85BB8BB38F7E8E
:100120008BBBCADFC295C07FC5BB8BB38F7E8BBB39
:10013000C3DFCF91089581E0EEDF87E893E1019777
:10014000F1F700C0000080E8E6CF0895CF93DF9379
:10015000EC01F1DFCE01D3DFDF91CF910895CF9392
:100160008FEF84BB8ABB15BA1BBA8BE792E9019764
:10017000F1F700C00000C0E2C5BB9EDFC5BB9CDF3D
:1001800080E885BB99DF15BA97DF80EF85BB94DFE8
:1001900015BA92DF80E685BB8FDFCDDFCF91089562
:1001A00020E030E008C0E3ECF9E03197F1F700C05F
:1001B00000002F5F3F4F28173907ACF308950F93C6
:1001C0001F93CF93DF93CDB7DEB760970FB6F89448
:1001D000DEBF0FBECDBF1F928F9380E091E09F9353
:1001E0008F938E010F5F1F4F1F930F9334D0A3DFA8
:1001F000C801ACDF0F900F900F900F900F900F90F1
:1002000060960FB6F894DEBF0FBECDBFDF91CF91E1
:100210001F910F91089581B38F7781BB82B380685E
:1002200082BB87E085BD14BC08958FEF8ABB84BB79
:10023000F2DF95DF80DF8AE091E088CF0895F5DF77
:10024000D0E0C4B5DC1719F08C2FB9DFDC2F8AEFB2
:1002500090E0A6DFF6CF0F931F93CF93DF93CDB738
:10026000DEB72E970FB6F894DEBF0FBECDBF0D8957
:100270001E8986E08C831A8309838FEF9FE79E8314
:100280008D83AE01475E5F4F6F89788DCE010196F9
:1002900010D0EF81F885E00FF11F10822E960FB677
:1002A000F894DEBF0FBECDBFDF91CF911F910F91AC
:1002B00008952F923F924F925F926F927F928F920A
:1002C0009F92AF92BF92CF92DF92EF92FF920F93E5
:1002D0001F93CF93DF93CDB7DEB72B970FB6F8946C
:1002E000DEBF0FBECDBF6C017B018A01FC0117820E
:1002F0001682838181FFBFC1CE0101963C01F601C8
:100300009381F70193FD859193FF81917F0188236C
:1003100009F4ADC1853239F493FD859193FF819144
:100320007F01853221F4B60190E0D6D1E8CF912C3F
:10033000212C312CFFE1F315D8F08B3279F038F411
:10034000803279F08332A1F4232D20611DC08D32DB
:1003500061F0803369F4232D216016C0832D826003
:10036000382EE32DE4603E2E2AC0F32DF8601DC028
:1003700037FC2DC020ED280F2A3040F08E32B9F422
:1003800036FC75C1232D2064322E19C036FE06C0FE
:100390008AE0989E200D1124922E11C0EAE02E9E34
:1003A000200D1124222EF32DF0623F2E08C08C3632
:1003B00021F4832D8068382E02C0883641F4F7017D
:1003C00093FD859193FF81917F018111B3CF982F88
:1003D0009F7D9554933028F40C5F1F4F9FE39983C2
:1003E0000DC0833631F0833771F0833509F055C085
:1003F00020C0F801808189830E5F1F4F8824839479
:10040000912C530112C02801F2E04F0E511CF8014B
:10041000A080B18036FE03C0692D70E002C06FEF8E
:100420007FEFC5014ED14C018201F32DFF773F2EA6
:1004300015C0280122E0420E511CF801A080B180B5
:1004400036FE03C0692D70E002C06FEF7FEFC5017B
:100450002DD14C01F32DF0683F2E820133FC19C0E1
:10046000822D90E088169906A0F4B60180E290E013
:1004700033D12A94F5CFF50137FC859137FE819170
:100480005F01B60190E028D121102A9421E0821A60
:1004900091088114910479F7E1C0843611F089360E
:1004A00039F5F80137FE07C060817181828193813F
:1004B0000C5F1F4F08C060817181072E000C880BF4
:1004C000990B0E5F1F4FF32DFF763F2E97FF09C04C
:1004D00090958095709561957F4F8F4F9F4FF068F5
:1004E0003F2E2AE030E0A30133D1882E861844C085
:1004F000853731F4232D2F7EB22E2AE030E025C03F
:10050000932D997FB92E8F36C1F018F4883579F084
:10051000AEC0803719F0883721F0A9C0E92FE0611B
:10052000BE2EB4FE0DC0FB2DF460BF2E09C034FEFC
:100530000AC0292F2660B22E06C028E030E005C090
:1005400020E130E002C020E132E0F801B7FE07C050
:1005500060817181828193810C5F1F4F06C0608131
:10056000718180E090E00E5F1F4FA301F1D0882ED3
:100570008618FB2DFF773F2E36FE0DC0232D2E7FD4
:10058000A22E891458F434FE0BC032FC09C0832D0E
:100590008E7EA82E05C0B82CA32C03C0B82C01C099
:1005A000B92CA4FE0FC0FE01E80DF11D808180333F
:1005B00021F49A2D997EA92E09C0A2FE06C0B394FB
:1005C000B39404C08A2D867809F0B394A3FC10C0BC
:1005D000A0FE06C0B21480F4280C922C9B180DC00B
:1005E000B21458F4B60180E290E076D0B394F8CF1C
:1005F000B21418F42B1802C0982C212CA4FE0FC0A2
:10060000B60180E390E068D0A2FE16C0A1FC03C052
:1006100088E790E002C088E590E0B6010CC08A2D22
:10062000867851F0A1FE02C08BE201C080E2A7FCF7
:100630008DE2B60190E050D0891430F4B60180E329
:1006400090E04AD09A94F8CF8A94F301E80DF11D16
:100650008081B60190E040D08110F6CF222009F4CD
:100660004ECEB60180E290E037D02A94F7CFF60163
:100670008681978102C08FEF9FEF2B960FB6F8947B
:10068000DEBF0FBECDBFDF91CF911F910F91FF90C5
:10069000EF90DF90CF90BF90AF909F908F907F9022
:1006A0006F905F904F903F902F900895FC010590C0
:1006B000615070400110D8F7809590958E0F9F1F64
:1006C0000895FC016150704001900110D8F78095A9
:1006D00090958E0F9F1F08950F931F93CF93DF93D5
:1006E000FB01238121FD03C08FEF9FEF2CC022FF70
:1006F00016C046815781248135814217530744F43F
:10070000A081B1819D012F5F3F4F318320838C9366
:10071000268137812F5F3F4F3783268314C08B019B
:10072000EC01FB010084F185E02D0995892BE1F6B0
:10073000D80116968D919C911797019617969C93C8
:100740008E931697CE01DF91CF911F910F9108954F
:10075000FA01AA27283051F1203181F1E8946F93F2
:100760006E7F6E5F7F4F8F4F9F4FAF4FB1E03ED098
:10077000B4E03CD0670F781F891F9A1FA11D680F36
:10078000791F8A1F911DA11D6A0F711D811D911D69
:10079000A11D20D009F468943F912AE0269F1124DE
:1007A0003019305D3193DEF6CF010895462F477042
:1007B000405D4193B3E00FD0C9F7F6CF462F4F709D
:1007C000405D4A3318F0495D31FD4052419302D0FB
:1007D000A9F7EACFB4E0A6959795879577956795A1
:1007E000BA95C9F700976105710508959B01AC01A1
:1007F0000A2E06945795479537952795BA95C9F7C8
:10080000620F731F841F951FA01D0895F894FFCFDA
:10081000436F756E743A2025640052656164792EC9
:040820002E2E000078
:00000001FF
