:1000000045C0000053C0000051C000004FC00000B8
:100010004DC000004BC0000049C0000047C00000B8
:1000200045C0000043C0000042C000003FC00000C7
:100030003DC000003BC0000039C0000037C00000D8
:1000400035C0000033C0000031C000002FC00000E8
:100050002DC000002BC0000029C0000027C00000F8
:1000600025C0000023C0000021C000001FC0000008
:100070001DC000001BC0000019C0000017C0000018
:1000800015C0000013C0000011C0000011241FBEE5
:10009000CFEFD0E1DEBFCDBF21E0A0E0B1E001C0F5
:1000A0001D92A130B207E1F729D02DC0A9CF1F9230
:1000B0000F920FB60F9211248F9386E184BD809129
:1000C0000001882331F082B38F7782BB1092000148
:1000D00006C082B3806882BB81E0809300018F916B
:1000E0000F900FBE0F901F90189587E085BD87B7C2
:1000F000806487BF86E184BD7894089581B3806869
:0A01000081BBF3DFFFCFF894FFCFBF
:00000001FF
