:1000000045C0000058C0000056C0000054C00000A9
:1000100052C0000050C000004EC000004CC00000A4
:100020004AC0000048C0000046C0000044C00000B4
:1000300042C0000040C000003EC000003CC00000C4
:100040003AC0000038C0000036C0000034C00000D4
:1000500032C0000030C000002EC000002CC00000E4
:100060002AC0000028C0000026C0000024C00000F4
:1000700022C0000020C000001EC000001CC0000004
:100080001AC0000018C0000016C0000011241FBED6
:10009000CFEFD0E1DEBFCDBF11E0A0E0B1E0E2EEF6
:1000A000F1E000E00BBF02C007900D92A031B10754
:1000B000D9F77CD094C0A4CF20E030E008C0E3ECB6
:1000C000F9E03197F1F700C000002F5F3F4F28178C
:1000D0003907ACF308958BB380648BBB83EC99E054
:1000E0000197F1F700C000008BB38F7B8BBB83ECD3
:1000F00099E00197F1F700C000000895CF938FEFCA
:1001000081BB8ABB15BA1BBAC0E2C5BBE4DFC5BB65
:10011000E2DF80E885BBDFDF15BADDDF80EF85BB7E
:10012000DADF15BAD8DF80E685BBD5DFCF91089539
:10013000CF93C82F85BB8BB380618BBBCCDFC295BF
:10014000C07FC5BB8BB380618BBBC5DFCF910895EA
:10015000CF93DF93EC0102C0EBDF21968881811100
:10016000FBCFDF91CF910895CF93C82F85BB8BB381
:100170008F7E8BBBB0DFC295C07FC5BB8BB38F7E3C
:100180008BBBA9DFCF9108958031910518F4805879
:100190009F4FEACF089581E0E7DF87E893E1019779
:1001A000F1F700C0000080E8DFCF08958FEF84BB37
:1001B00085BBA4DF87EA91E60197F1F700C0000054
:1001C000EADF80E091E0C4DF85E090E0DDDF95B319
:1001D00081E0892785BB8AEF90E06EDFF8CFF89445
:0201E000FFCF4F
:1001E20048656C6C6F20776F726C6421212121004D
:00000001FF
