:1000000045C0000060C000005EC000005CC0000091
:100010005AC0000058C0000056C0000054C0000084
:1000200052C0000050C000004EC000004CC0000094
:10003000C3C2000048C0000046C0000044C0000029
:1000400042C0000040C000003EC000003CC00000B4
:100050003AC0000038C0000036C0000034C00000C4
:1000600032C0000030C000002EC000002CC00000D4
:100070002AC0000028C0000026C0000024C00000E4
:1000800022C0000020C000001EC0000011241FBEBE
:10009000CFEFD0E1DEBFCDBF11E0A0E0B1E0E8E2FC
:1000A000F7E000E00BBF02C007900D92A830B10747
:1000B000D9F721E0A8E0B1E001C01D92A331B20759
:1000C000E1F7A7D22FC39CCF8AB38B7F8ABB8BB3B8
:1000D00084608BBB089589B38695869591E08927C6
:1000E000817090E0089505C083E08A95F1F70000E3
:1000F000C9019C0121503109892BB1F708958FEF77
:1001000087BB87B3877F87BB88B3816088BB82E565
:100110008DB908958FB9779BFECF089598B321E0EC
:1001200030E002C0220F331F8A95E2F72095292381
:1001300028BB089598B321E030E002C0220F331F9E
:100140008A95E2F7292B28BB0895CF93DF93D82F08
:10015000C62F80E0E3DF8D2FDDDF8C2FDBDF80E03B
:10016000E9DFDF91CF9108958F929F92AF92BF9276
:10017000CF92DF92EF92FF92CF93DF935B019C01CE
:1001800040E050E060E271EA87E090E086D26901E9
:100190007A01C22FDD2D9501A8EEB3E0A0D2A70110
:1001A0009601220F331F441F551F77D269017A0130
:1001B0008091080190910901892B61F085B38260DB
:1001C00085BB88EE93E08FDF85B38D7F85BB88EE9E
:1001D00093E089DF812C912C540111C085B382609A
:1001E00085BB8C2F9D2F7FDF85B38D7F85BB8C2FAB
:1001F0009D2F79DF8FEF881A980AA80AB80A8C1405
:100200009D04AE04BF0450F3DF91CF91FF90EF90B7
:10021000DF90CF90BF90AF909F908F900895CF9236
:10022000DF92EF92FF920F931F93CF93DF9300978C
:1002300011F18B01EC01C12CD12C760112C064E6C6
:1002400070E0C80191DF2FE38DE093E02150804002
:100250009040E1F700C000002FEFC21AD20AE20A74
:10026000F20ACE010D2E000CAA0BBB0BC816D90644
:10027000EA06FB0620F3DF91CF911F910F91FF90CB
:10028000EF90DF90CF9008951F93CF93DF93162FB9
:10029000D42FC22F682F81E058DF612F82E055DF15
:1002A0006D2F83E052DF6C2F84E04FDFDF91CF9121
:1002B0001F9108956F927F928F929F92AF92BF92FB
:1002C000CF92DF92EF92FF920F931F93CF93DF9322
:1002D0009C01109209011092080199234CF481E0CD
:1002E00090E090930901809308013195219531099F
:1002F000EAE0F0E0C901BF01BDD1C82ED92EE82E39
:10030000F92ECB01BF01B6D1A82EB92E082F192F77
:10031000C90164E670E0AED1CB01BF01ABD1882E3C
:10032000992EC82FD92FC90168EE73E0A3D1CB0154
:10033000BF01A0D1682E792E009711F5209701F109
:1003400001151105E9F0E114F104D1F080910801E3
:1003500090910901892B51F02AE030E0482D592D68
:100360006A2D7B2D8C2D9D2D8FDF70C02FE030E00E
:10037000482D592D6A2D7B2D8C2D9D2D85DF66C036
:10038000009711F5209701F501151105E9F0E11429
:10039000F104D1F08091080190910901892B51F06D
:1003A0002FE030E04AE050E06A2D7B2D8C2D9D2D12
:1003B0006BDF4CC02FE030E04FE050E06A2D7B2D2A
:1003C0008C2D9D2D61DF42C00097F9F42097E9F450
:1003D00001151105D1F48091080190910901892B33
:1003E00051F02FE030E04FE050E06AE070E08C2DFB
:1003F0009D2D4ADF2BC02FE030E04FE050E06FE052
:1004000070E08C2D9D2D40DF21C0892BF9F4CD2B80
:10041000E9F4012BD9F0EF28C9F4809108019091FB
:100420000901892B51F02FE030E04FE050E06AE005
:1004300070E080E090E028DF09C02FE030E04FE07E
:1004400050E06FE070E080E090E01EDFEBE0F1E074
:100450006082718282829382A482B582C682D782B0
:10046000DF91CF911F910F91FF90EF90DF90CF9090
:10047000BF90AF909F908F907F906F900895CF9393
:10048000C1E004C060E08C2F60DECF5FC530D0F3E8
:10049000CF9108956FEF89E058DE6FE08AE055DE76
:1004A00063E08BE052DE61E08CE04FDEE8CF089540
:1004B00084B3826084BB089581B3816081BB82B3C1
:1004C0008E7F82BB87EC9FEA0197F1F700C00000A6
:1004D00082B3816082BB94E69A95F1F781B38E7FF7
:1004E00081BB089585E88A95F1F70000809913C0D3
:1004F00087EC90E00197F1F700C0000090B3892FDE
:10050000817090FF09C087EC90E00197F1F700C07F
:10051000000081E0089580E0089580E090E016C03A
:10052000809BFECF24E62A95F1F7809B0CC047E024
:1005300050E0491B510921E030E002C0220F331F77
:100540004A95E2F7822B8099FECF9F5F983040F367
:1005500008950F931F93CF93DF93AEDFC3DF8823FC
:10056000C1F0DBDF082FD9DFD82FD7DFC82FD5DFC9
:10057000182FD3DF2D2F30E0200F311D2C0F311D10
:10058000210F311D90E02817390711F48C2F01C07D
:1005900080E0DF91CF911F910F9108958EB5886013
:1005A0008EBD8EB585608EBD8AE49CE49BBD8ABD00
:1005B00087B7806187BF08951F920F920FB60F9281
:1005C00011240BB60F922F933F934F935F936F932A
:1005D0007F938F939F93AF93BF93EF93FF93B9DF75
:1005E00080930A0180910A0190E064DEFF91EF910F
:1005F000BF91AF919F918F917F916F915F914F913B
:100600003F912F910F900BBE0F900FBE0F901F9038
:10061000189581E087BB4CDF72DD3CDFBFDF54DD26
:100620007894C0E001C0C0E056DD892BE1F3CC2313
:1006300089F0FACFCE01880F991FFC01E050FF4FDF
:1006400060817181FC01E55FFE4F80819181E7DD72
:10065000219602C0C0E0D0E0C430D10558F32FE7A6
:100660008AE196E0215080409040E1F700C0000010
:10067000C1E0DACF97FB072E16F4009406D077FD81
:1006800008D03CD007FC05D03EF4909581959F4F53
:100690000895709561957F4F0895A1E21A2EAA1BC7
:1006A000BB1BFD010DC0AA1FBB1FEE1FFF1FA21722
:1006B000B307E407F50720F0A21BB30BE40BF50B1F
:1006C000661F771F881F991F1A9469F760957095A8
:1006D000809590959B01AC01BD01CF010895A29F2B
:1006E000B001B39FC001A39F700D811D1124911D06
:1006F000B29F700D811D1124911D0895AA1BBB1B73
:1007000051E107C0AA1FBB1FA617B70710F0A61B11
:10071000B70B881F991F5A95A9F780959095BC0132
:08072000CD010895F894FFCF0C
:080728005E012602EE028403CB
:00000001FF
