:1000000045C000004BC0000049C0000047C00000D0
:1000100045C0000043C0000041C000003FC00000D8
:100020003DC000003BC0000039C0000037C00000E8
:1000300035C0000033C0000031C000002FC00000F8
:100040002DC000002BC0000029C0000027C0000008
:1000500025C0000023C0000021C000001FC0000018
:100060001DC000001BC0000019C0000017C0000028
:1000700015C0000013C0000011C000000FC0000038
:100080000DC000000BC0000009C0000011241FBEFD
:10009000CFEFD0E1DEBFCDBFB1D0F1C0B1CF20E016
:1000A00030E008C0E3ECF9E03197F1F700C0000060
:1000B0002F5F3F4F28173907ACF308958FEF87BBA9
:1000C00087B3877F87BB88B3816088BB82E58DB9A2
:1000D00008958FB9779BFECF089598B321E030E063
:1000E00002C0220F331F8A95E2F72095292328BBEF
:1000F000089598B321E030E002C0220F331F8A95A3
:10010000E2F7292B28BB0895CF93DF93D82FC62F72
:1001100080E0E3DF8D2FDDDF8C2FDBDF80E0E9DFA8
:10012000DF91CF910895BF92CF92DF92EF92FF922D
:100130000F931F93CF93DF939C0199233CF4319548
:1001400021953109CC24C394D12C02C0C12CD12CCF
:10015000EAE0F0E0C901BF016BD0482FCB01BF013D
:1001600067D0E82EC82FD92FC90164E670E060D0AF
:10017000CB01BF015DD0F82E082F192FC90168EE01
:1001800073E056D0CB01BF0153D0B82E642F81E06D
:10019000BBDF6E2D82E0B8DF6F2D83E0B5DF6B2D06
:1001A00084E0B2DFCD2899F0012B29F46FE084E0E0
:1001B000ABDF83E001C084E0CD2B39F46FE084E055
:1001C000A3DF6FE083E0A0DF82E06AE09DDFDF91E4
:1001D000CF911F910F91FF90EF90DF90CF90BF9044
:1001E00008956FEF89E090DF6FE08AE08DDF63E0D4
:1001F0008BE08ADF61E08CE087CF0895CF9381E0C8
:1002000087BB5CDFEEDFC1E004C060E08C2F7CDFE9
:10021000CF5FC530D0F388EE93E041DF84E79DEFF8
:1002200082DF88EE93E03BDF81E090E0CF9108959C
:1002300097FB072E16F4009406D077FD08D00BD05C
:1002400007FC05D03EF4909581959F4F08957095D9
:1002500061957F4F0895AA1BBB1B51E107C0AA1FE0
:10026000BB1FA617B70710F0A61BB70B881F991F57
:100270005A95A9F780959095BC01CD010895F89401
:02028000FFCFAE
:00000001FF
