:1000000045C0000079C00000AEC000005CC0000028
:100010005AC0000058C0000056C0000054C0000084
:1000200052C0000050C000004EC000004CC0000094
:100030004AC0000048C0000046C0000044C00000A4
:1000400042C0000040C000003EC000003CC00000B4
:100050003AC0000038C0000036C0000034C00000C4
:1000600032C0000030C000002EC000002CC00000D4
:100070002AC0000028C0000026C0000024C00000E4
:1000800022C0000020C000001EC0000011241FBEBE
:10009000CFEFD0E1DEBFCDBF11E0A0E0B1E0EAEFED
:1000A000F1E000E00BBF02C007900D92A031B10754
:1000B000D9F721E0A0E1B1E001C01D92A231B20761
:1000C000E1F78BD098C09CCF20E030E008C0EFE192
:1000D000FEE43197F1F700C000002F5F3F4F281773
:1000E0003907ACF3089580509F4FFC0180818BBB92
:1000F00084E690E0E9CF08951F920F920FB60F9219
:1001000011240BB60F922F933F934F935F936F93EE
:100110007F938F939F93AF93BF93EF93FF938091C0
:100120001001909111018031910524F08EE090E052
:10013000DADF06C001969093110180931001D3DF9E
:10014000FF91EF91BF91AF919F918F917F916F91AF
:100150005F914F913F912F910F900BBE0F900FBE6B
:100160000F901F9018951F920F920FB60F921124A7
:100170000BB60F922F933F934F935F936F937F93A1
:100180008F939F93AF93BF93EF93FF938091100151
:1001900090911101009741F480E090E0A4DF10926B
:1001A00011011092100106C00197909311018093E4
:1001B000100199DFFF91EF91BF91AF919F918F91C6
:1001C0007F916F915F914F913F912F910F900BBE57
:1001D0000F900FBE0F901F90189580EF81BB8FEF8F
:1001E0008ABBEAE6F0E080818B60808389B7836018
:0A01F00089BF7894FFCFF894FFCF89
:1001FA003F065B4F666D7D077F6F777C395E79714D
:00000001FF
