:1000000045C000004BC0000049C0000047C00000D0
:1000100045C0000043C0000041C000003FC00000D8
:100020003DC000003BC0000039C0000037C00000E8
:1000300035C0000033C0000031C000002FC00000F8
:100040002DC000002BC0000029C0000027C0000008
:1000500025C0000023C0000021C000001FC0000018
:100060001DC000001BC0000019C0000017C0000028
:1000700015C0000013C0000011C000000FC0000038
:100080000DC000000BC0000009C0000011241FBEFD
:10009000CFEFD0E1DEBFCDBF62D08DC0B1CF20E0C9
:1000A00030E008C0E3ECF9E03197F1F700C0000060
:1000B0002F5F3F4F28173907ACF308958FEF87BBA9
:1000C00087B3877F87BB88B3816088BB82E58DB9A2
:1000D00008958FB9779BFECF089598B321E030E063
:1000E00002C0220F331F8A95E2F72095292328BBEF
:1000F000089598B321E030E002C0220F331F8A95A3
:10010000E2F7292B28BB0895CF93DF93D82FC62F72
:1001100080E0E3DF8D2FDDDF8C2FDBDF80E0E9DFA8
:10012000DF91CF91089580E0D8DF89E0D2DF8FEFB3
:10013000D0DF80E0DEDF6FE08AE0E6DF80E0CDDF69
:100140008BE0C7DF83E0C5DF80E0D3DF80E0C5DF81
:100150008CE0BFDF81E0BDDF80E0CBCF0895CF939F
:1001600081E087BBABDFDFDFC1E009C080E0B5DF46
:100170008C2FAFDF80E0ADDF80E0BBDFCF5FC5302D
:10018000A8F388EE93E08BDFC1E00CC080E0A5DF30
:100190008C2F9FDF8C2F9DDF80E0ABDF88EE93E01C
:1001A0007EDFCF5FC53090F388EE93E078DF81E0AB
:0A01B00090E0CF910895F894FFCF7E
:00000001FF
